:1007B300D284D285C2847F017E00120775C285224E
:0D07D300C284D285D2847F017E00020775AA
:0206C2008F3275
:1006C400E4F533C3E533940874809480501FE53215
:1006D40030E7028001C39284D2857F017E00120735
:1006E40075C285E53225E0F532053380D6D284D251
:0A06F400857F017E00120775C285A4
:0106FE0022D9
:0405EB008F2F8D3091
:1005EF00E52F54F0F531E53042314331041207B3B2
:1005FF007F401206C2AF311206C25331FBAF311228
:10060F0006C21207D3E52FC454F0F531E53042315D
:10061F004331041207B37F401206C2AF311206C234
:0B062F005331FBAF311206C20207D3AB
:0C07E000E4FD1205EB7F027E00020775AD
:0C07EC007D011205EB7F027E0002077504
:10072D008B2C8A2D892EAB2CAA2DA92E1200F960A7
:10073D0013052EE52E7002052D14F91200F9FF1286
:05074D0007EC80E22230
:100795007F331207E07F321207E07F281207E07FE0
:0E07A5000C1207E07F061207E07F010207E05A
:1007C3003738392F3435362A3132332D43303D2BE8
:10041400E4F52C782D7C00FD7BFF7A0779C3FE7F01
:10042400101200D3E4FDEDC39404748094805065ED
:100434007590FFA8057401088002C333D8FCF452F8
:1004440090E4FCECC39404748094805045EC240440
:10045400FF7E007401A807088005C333CE33CED8CD
:10046400F9FFAB90EF5B7027EC2404FF7E0074016E
:10047400A807088005C333CE33CED8F9FFAB90EF7D
:100484005B60E5ED25E025E0242D2CF8E6FF220C49
:0704940080B10D80917F0093
:01049B00223E
:1005230053797374656D20526561647900496E690E
:100533007469616C697A696E672E2E2E004C313AAC
:10054300004F4E20004F464600204C323A004C33B9
:100553003A00204C343A005741524E494E4721202D
:100563004649524500414C4C204C4F414453204F87
:1005730046460053797374656D204E6F726D616CDE
:05058300000000000073
:02080F00C10026
:1005880078217C007D007BFF7A0579847E007F04DA
:100598001200D31207521201737F011207E07BFF8A
:1005A8007A05792312072D7F327E001207757B00AA
:1005B8007A0079211202467B007A00792112049C84
:1005C800120414EF60091202EB20B3031206FF12A3
:1005D80008048F25E52560DF1202EB20B3D9120647
:0305E800FF80D4BD
:10075200C283C282C281C2801207951207F87F014A
:100762001207E07BFF7A05793012072D7F327E0077
:0307720002077506
:0602EB007B007A0079217E
:1002F100EF24CF602B1460361460461460561460EE
:100301006824056003020387900003E41201519001
:100311000002E4120151900001E4120151E48063F2
:100321001200F970047F0180027F00EF8055900078
:100331000112011270047F0180027F009000018090
:100341002490000212011270047F0180027F00904C
:100351000002801190000312011270047F018002DB
:100361007F00900003EF020151900003740112011C
:1003710051900002740112015190000174011201A7
:0703810051740112013F223B
:0606FF007B007A00792166
:100705001200F924FF928090000112011224FF9239
:100715008190000212011224FF92829000031201BF
:080725001224FF928302024638
:100246008B298A2A892B7F801207E07BFF7A057922
:100256004012072DAB29AA2AA92B1200F97BFF60B1
:10026600067A05794480047A05794812072D7BFFC2
:100276007A05794C12072DAB29AA2AA92B900001E1
:100286001201127BFF60067A05794480047A0579AB
:100296004812072D7FC01207E07BFF7A05795112BD
:1002A600072DAB29AA2AA92B9000021201127BFF67
:1002B60060067A05794480047A05794812072D7B11
:1002C600FF7A05795512072DAB29AA2AA92B90008A
:1002D600031201127BFF60067A05794480047A05D1
:0502E600794802072D1C
:06049C008B268A27892847
:1004A20030B3572000547F011207E07BFF7A0579B1
:1004B2005A12072D7F327E001207757FC01207E0A5
:1004C2007BFF7A05796812072D7F327E001207754D
:1004D200C283C282C281C280AB26AA27A928900009
:1004E20003E4120151900002E4120151900001E470
:1004F200120151E412013FD2002220B32330002026
:100502007F011207E07BFF7A05797612072D7F3291
:100512007E00120775AB26AA27A928120246C2003E
:0105220022B6
:10077500E4FDFCC3ED9FEC9E5015E4FBFA0BBB00BA
:0F078500010AEB64784A70F50DBD00010C80E4A9
:010794002242
:10067F00456E7465722050617373776F72643A00C0
:10068F00202020202020202020202020202020205B
:10069F0000436F72726563742100496E636F7272EB
:1006AF00656374210054727920416761696E00316E
:0306BF003233349F
:06063A008B2C8A2D892E95
:10064000782F7C007D007BFF7A0679BE7E007F04D8
:100650001200D3E4FFEFC3940474809480501DAB68
:100660002CAA2DA92E8F82758300120112FE742FE1
:0E0670002FF8E66E60037F00220F80D97F0115
:01067E002259
:10017300E4F52B7F011207E07BFF7A06797F1207F4
:100183002D7FC01207E0E4F52BFFEFC394047480C6
:100193009480500974262FF8E4F60F80EDC3E52B05
:1001A30094047480948050491204148F2AE52A60C1
:1001B300ECB44318E4F52B7FC01207E07BFF7A060B
:1001C300798F12072D7FC01207E08025E52AC3949B
:1001D3003040CAE52AD3943950C37426252BF8A698
:1001E3002A7F2A1207EC052B7FC87E001207758031
:1001F300ACE52B640460030201767F011207E07B08
:10020300007A00792612063AEF60107BFF7A0679AE
:10021300A012072D7FE87E030207757BFF7A06791C
:10022300A912072D7FE87E031207757F011207E0ED
:100233007BFF7A0679B412072D7FE87E03120775D8
:030243000201763F
:0C07F800438920758DFD759850D28E222B
:0B080400309805C298AF99227F0022B7
:0300000002038870
:0C038800787FE4F6D8FD75813C0203CFBD
:10000300E709F608DFFA8046E709F208DFFA803EDF
:1000130088828C83E709F0A3DFFA8032E309F608CC
:10002300DFFA8078E309F208DFFA807088828C8334
:10003300E309F0A3DFFA806489828A83E0A3F608E8
:10004300DFFA805889828A83E0A3F208DFFA804CC2
:1000530080D280FA80C680D4806980F28033801099
:1000630080A680EA809A80A880DA80E280CA803302
:1000730089828A83ECFAE493A3C8C582C8CCC5837A
:10008300CCF0A3C8C582C8CCC583CCDFE9DEE7804A
:100093000D89828A83E493A3F608DFF9ECFAA9F0C9
:1000A300EDFB2289828A83ECFAE0A3C8C582C8CC1F
:1000B300C583CCF0A3C8C582C8CCC583CCDFEADE38
:1000C300E880DB89828A83E493A3F208DFF980CC9A
:1000D30088F0EF60010E4E60C388F0ED2402B40493
:1000E3000050B9F582EB2402B4040050AF2323453A
:0600F3008223900053730C
:1000F900BB010689828A83E0225002E722BBFE0205
:09010900E32289828A83E4932237
:10011200BB010CE58229F582E5833AF583E02250A2
:1001220006E92582F8E622BBFE06E92582F8E222EC
:0D013200E58229F582E5833AF583E4932206
:10013F00BB010689828A83F0225002F722BBFE019F
:02014F00F32299
:10015100F8BB010DE58229F582E5833AF583E8F0E4
:10016100225006E92582C8F622BBFE05E92582C890
:02017100F22278
:10039400020588E493A3F8E493A34003F68001F2F2
:1003A40008DFF48029E493A3F85407240CC8C3336A
:1003B400C4540F4420C8834004F456800146F6DF39
:1003C400E4800B010204081020408090080FE47EB2
:1003D400019360BCA3FF543F30E509541FFEE4932E
:1003E400A360010ECF54C025E060A840B8E493A3F5
:1003F400FAE493A3F8E493A3C8C582C8CAC583CA20
:10040400F0A3C8C582C8CAC583CADFE9DEE780BED7
:0108110000E6
:00000001FF
